S010000046756C6C436F64652E7372656306
S11300000C94C5000C94E2000C94E2000C94E20001
S11300100C94E2000C94E2000C94E2000C94E200D4
S11300200C94E2000C94E2000C94E2000C94E200C4
S11300300C94E2000C94B1020C94E2000C94E200E3
S11300400C94E2000C94E2000C94E2000C94E200A4
S11300500C94E2004E414E494E495459494E46CD06
S1130060CCCC3D0AD7233C17B7D13877CC2B32956B
S113007095E6241FB14F0A000020410000C8420049
S1130080401C4620BCBE4CCA1B0E5AAEC59D740013
S1130090407A10F35A00A0724E18090010A5D4E853
S11300A00000E87648170000E40B54020000CA9AE6
S11300B03B000000E1F50500008096980000004038
S11300C0420F000000A0860100000010270000007D
S11300D000E803000000006400000000000A0000C3
S11300E00000000100000000002C76D888DC674F77
S11300F00823DFC1DFAE59E1B1B796E5E3E453C6A7
S11301003AE651997696E8E6C28426EB898C9B629E
S1130110ED407C6FFCEFBC9C9F40F2BAA56FA5F448
S113012090055A2AF75C936B6CF9676DC11BFCE070
S1130130E40D47FEF520E6B500D0ED902E030094C3
S11301403577050080841E080000204E0A00000058
S1130150C80C333333330F986E12831141EF8D2162
S113016014893BE65516CFFEE6DB18D1844B381BC9
S1130170F77C1D901DA4BBE424203284725E22818E
S113018000C9F124ECA1E53D270011241FBECFE5F1
S1130190D8E0DEBFCDBF11E0A0E6B0E0E4EAF1E2D2
S11301A002C005900D92A631B107D9F722E0A6E16D
S11301B0B1E001C01D92AD34B207E1F70E943B06E5
S11301C00C94D0100C94000011B880E280B908950A
S11301D094EA96BF06B607FEFDCF91B1987F9031A1
S11301E071F483B984E886BF06B607FEFDCF81B1FA
S11301F0887F803431F0803231F482E0089580E0E9
S1130200089581E0089583E0089584E986BF06B6E1
S113021004FCFDCF0895CF93C82F84EA86BF06B6A9
S113022007FEFDCF81B1887F8830B9F7C3B984E870
S113023086BF06B607FEFDCF81B1887F883119F0ED
S11302400E940501EACFCF91089583B984E886BF5F
S113025006B607FEFDCF81B1887F883221F0803356
S113026021F481E0089580E0089582E0089584EC0B
S113027086BF06B607FEFDCF83B1089584E886BF26
S113028006B607FEFDCF83B1089588BB85B38C7F86
S113029085BB85B3846085BB82E08A95F1F700C095
S11302A085B38B7F85BB8FE99FE00197F1F700C091
S11302B00000089588BB85B38D7F85BB85B38560B9
S11302C085BB82E08A95F1F700C085B38B7F85BB3F
S11302D08FEC97E00197F1F700C00000089584B314
S11302E0876084BB8FEF87BB8FE99CE80197F1F7A8
S11302F000C0000088E30E9445018CE00E94450193
S113030086E00E94450181E00E94450180E80E9448
S1130310450108950F931F93CF93DF938C01C0E0A1
S1130320D0E003C00E945A012196F801EC0FFD1F92
S113033080818111F7CFDF91CF911F910F910895A3
S1130340CF93DF93EA01813031F4862F8F70806878
S11303500E94450107C0823029F4862F8F70806C7B
S11303600E944501CE010E948A01DF91CF91089538
S113037081E00E94450108958FEF87BB1ABA87E890
S113038086B980EC87B9089586B1806486B9349BB8
S1130390FECF8AE18A95F1F700C024B185B190E0DF
S11303A0982F8827820F911D0895CF93DF9380EEB5
S11303B091E00E94DA0920E137E240E050E00E9437
S11303C09409C22FD32F24E630E040E050E00E948D
S11303D094097F936F933F932F93DF93CF938AE690
S11303E090E09F938F9380EE91E09F938F930E9470
S11303F0280A8DB79EB70A960FB6F8949EBF0FBE13
S11304008DBFDF91CF910895F89480E020E007C07C
S1130410E22FF0E0E052FE4F90832F5F8F5FE82FD2
S1130420F0E0E55EFE4F90819C3291F70E94D50189
S1130430789408958F929F92AF92BF92CF92DF9259
S1130440EF92FF920F931F930E94D60920E030E0B1
S113045048EC52E40E94C8076B017C010E943A08F0
S1130460072E000C880B990B0E9472084B015C014B
S11304709B01AC01C701B6010E9456072AE939E97C
S113048049E15FE30E94C8079B01AC01C501B401C7
S11304900E9457070DEB11E024E046E00E94B609E4
S11304A01F910F91FF90EF90DF90CF90BF90AF908E
S11304B09F908F900895F8948F5F90E007C0E92F84
S11304C0F0E0E35FFD4F20839F5F8F5FE82FF0E054
S11304D0E55EFE4F20812C3291F731E0390FE92F90
S11304E0F0E08F5FE35FFD4F2083232F30E0E82FA0
S11304F0F0E0E55EFE4F8081F901E35FFD4F80830C
S11305008DE092E00E941A0278940895F8948F5F27
S113051090E007C0E92FF0E0EF52FE4F20839F5F89
S11305208F5FE82FF0E0E55EFE4F20812C3291F7DB
S113053031E0390FE92FF0E08F5FEF52FE4F208357
S1130540232F30E0E82FF0E0E55EFE4F8081F901D3
S1130550EF52FE4F808381ED91E00E941A0278945D
S113056008951F920F920FB60F9211242F933F9369
S11305704F935F938F939F93EF93FF939FB7F89459
S11305808CB1843259F41092FA011092F90110924C
S1130590F8011092F7011092160145C0209116013E
S11305A0222329F18C3299F42091F7013091F8013A
S11305B0A9014F5F5F4F5093F8014093F7014091B9
S11305C0F9015091FA01F901E15DFD4F4083209159
S11305D0F9013091FA01A9014F5F5F4F5093FA017D
S11305E04093F901F901E55EFE4F80831CC0209120
S11305F00A02273489F420910B02273469F42091EC
S11306000C02213449F481E080931601EAE0F2E01F
S113061010821182128207C0EAE0F2E02181208375
S11306202281218382839FBFFF91EF919F918F91BC
S11306305F914F913F912F910F900FBE0F901F909C
S113064018952FE789EA93E0215080409040E1F724
S113065000C0000080ED0E940B0189E10E94250189
S113066087E00E9425010E94050180ED0E940B0194
S11306708BE60E94250181E00E9425010E9405016C
S113068080ED0E940B018AE10E94250180E00E9416
S113069025010E94050180ED0E940B018BE10E945F
S11306A0250188E10E9425010E94050180ED0E9438
S11306B00B0188E30E94250181E00E9425010E942C
S11306C00501089580ED0E940B018BE30E94250132
S11306D081ED0E94E8000895CF93DF930E946203A6
S11306E00E943701C82FD0E0DC2FCC270E943701AD
S11306F0BE01682B072E000C880B990B0E94720810
S11307006093F3017093F4018093F5019093F601E3
S11307100E943701C82FD0E0DC2FCC270E9437017C
S1130720BE01682B072E000C880B990B0E947208DF
S11307306093B9017093BA018093BB019093BC019B
S11307400E943701C82FD0E0DC2FCC270E9437014C
S1130750BE01682B072E000C880B990B0E947208AF
S113076060931701709318018093190190931A01F3
S11307700E943701C82FD0E0DC2FCC270E9437011C
S1130780BE01682B072E000C880B990B0E9472087F
S11307906093B5017093B6018093B7019093B8014B
S11307A00E943701C82FD0E0DC2FCC270E943701EC
S11307B0BE01682B072E000C880B990B0E9472084F
S11307C06093B1017093B2018093B3019093B4012B
S11307D00E943701C82FD0E0DC2FCC270E943701BC
S11307E0BE01682B072E000C880B990B0E9472081F
S11307F060932B0270932C0280932D0290932E020F
S11308000E943701C82FD0E0DC2FCC270E943E0184
S1130810BE01682B072E000C880B990B0E947208EE
S11308206093EF017093F0018093F1019093F201D2
S11308300E940501DF91CF9108954F925F926F92CC
S11308407F928F929F92AF92BF92CF92DF92EF925C
S1130850FF920F931F934B015C0129013A01670139
S1130860780120E030E040E050ECC701B6010E947E
S113087022091816ACF520E030E040E050E4C7014E
S1130880B6010E94C307882374F520E030E040E4F9
S113089050ECC501B4010E94220918163CF520E071
S11308A030E040E450E4C501B4010E94C30788234A
S11308B004F520E030E040E051E4C301B2010E94BD
S11308C022098823CCF020E030E040E151E4C30168
S11308D0B2010E94C307181694F481E090E011C09D
S11308E081E090E00EC081E090E00BC081E090E0F8
S11308F008C081E090E005C081E090E002C080E0A3
S113090090E01F910F91FF90EF90DF90CF90BF90F8
S1130910AF909F908F907F906F905F904F900895CD
S113092089E683BF87B3886087BB08958AB18861ED
S11309308AB980B5866880BD83E389B910BC0895FF
S11309405D9BFECF8CB90895EF92FF920F931F9396
S1130950CF93DF93CDB7DEB7A3970FB6F894DEBF7E
S11309600FBECDBF7C018A0181E494E59A8389831B
S11309701C821B828AE0EDEBF0E0DE01159601900B
S11309800D928A95E1F789E0E0E6F0E0DE011F963A
S113099001900D928A95E1F7188ED7010D900020F1
S11309A0E9F711978AE1E3E7F0E001900D928A9567
S11309B0E1F7C7010E94010AD7010D900020E9F771
S11309C0119780E1EDE8F0E001900D928A95E1F74E
S11309D0B801C7010E94010A8BE0E7ECF0E0DE01F8
S11309E0599601900D928A95E1F70E94B8014DE95C
S11309F050E060E081E00E94A00145EA50E063E03D
S1130A0082E00E94A0012FEF84E39CE0215080400B
S1130A109040E1F700C0000000E010E00DC00E942B
S1130A20A0042FEF80E792E0215080409040E1F74E
S1130A3000C000000F5F1F4FE1E0F0E0EC0FFD1F6E
S1130A40E00FF11F80818111EACF8DE00E94A004A4
S1130A502FEF81EE94E0215080409040E1F700C0F8
S1130A60000000E010E00DC00E94A0042FEF80E71A
S1130A7092E0215080409040E1F700C000000F5FF9
S1130A801F4FE5E0F0E0EC0FFD1FE00FF11F808148
S1130A908111EACF8DE00E94A0042FEF81EE94E053
S1130AA0215080409040E1F700C0000000E010E0D9
S1130AB00DC00E94A0042FEF80E792E021508040F7
S1130AC09040E1F700C000000F5F1F4FEFE0F0E03F
S1130AD0EC0FFD1FE00FF11F80818111EACF82E24C
S1130AE08CB92FEF80E792E0215080409040E1F7ED
S1130AF000C0000000E010E00DC00E94A0042FEF31
S1130B0080E792E0215080409040E1F700C000006F
S1130B100F5F1F4FE9E1F0E0EC0FFD1FE00FF11F45
S1130B2080818111EACF82E28CB92FEF80E792E0D5
S1130B30215080409040E1F700C000008DE08CB966
S1130B402FEF81EE94E0215080409040E1F700C007
S1130B50000000E010E00DC00E94A0042FEF80E729
S1130B6092E0215080409040E1F700C000000F5F08
S1130B701F4FF701E00FF11F80818111EDCF2FEF9F
S1130B8081EE94E0215080409040E1F700C00000E5
S1130B900E94B80140EB50E060E081E00E94A001B7
S1130BA02FEF8DE399E4215080409040E1F700C09D
S1130BB000000E94B801A3960FB6F894DEBF0FBEE2
S1130BC0CDBFDF91CF911F910F91FF90EF900895CA
S1130BD082B3806882BB089582B38F7782BB089505
S1130BE082B3806482BB089582B38F7B82BB0895F5
S1130BF082B3806282BB0895CF93DF930E94040284
S1130C00CFE2D2E0888190E00E945B026DEB71E05C
S1130C108BEF91E00E940C0A8A8190E00E94860288
S1130C206DEB71E08CE192E00E940C0ADF91CF91B0
S1130C30089581E090E020E030E011C09E9B03C065
S1130C402F5F3F4F02C0215031094FE758E361E065
S1130C50415050406040E1F700C0000001968932E5
S1130C60910564F32832310519F481E090E0089588
S1130C7080E090E008951092FA011092F90181B396
S1130C80806481BB81B3806881BB81B3806281BB96
S1130C900E946F012FEF3DE349E421503040404072
S1130CA0E1F700C0000060E875E280E090E00E9497
S1130CB0960460E875E280E090E00E944C070E9490
S1130CC0BC0178940E94E4000E9490040E942103D5
S1130CD00E94B8019C9B20C00E94E8050E94F00578
S1130CE08FEF99E628E1815090402040E1F700C061
S1130CF000000E94EC050E94F40582ED90E00E9441
S1130D008A010E94FC054BEF51E06CE172E083EE36
S1130D1090E00E94A404DECF80E00E94C401BC01E4
S1130D20990F880B990B0E94720820E030E040E88C
S1130D305AE30E94270920E030E04FE753E40E9481
S1130D4027090E943A086CBF81E00E94C4018C36D6
S1130D5091050CF4BFCF9D9B1EC00E94B80182EF89
S1130D6090E00E948A010E94E8053FEF49E688E18D
S1130D70315040408040E1F700C000000E94EC0583
S1130D800E94FC054BEF51E06CE172E082EF90E0D1
S1130D900E94A4049FCF0E946C0320E030E040E84E
S1130DA058E36091F3017091F4018091F501909101
S1130DB0F6010E94270925ED37EE4CE151E40E942B
S1130DC027094B015C0120E030E040E858E36091E2
S1130DD0B9017091BA018091BB019091BC010E944C
S1130DE0270925ED37EE4CE151E40E9427092B0138
S1130DF03C0120E030E040E858E360911701709135
S1130E0018018091190190911A010E94270925ED7A
S1130E1037EE4CE151E40E9427096B017C010E94EA
S1130E201906892B09F456CF87017601A301920193
S1130E30C501B4010E941D04892B09F44BCF0E9403
S1130E40E8050E94F00581E090E011C09B9B05C07D
S1130E500E94EC050E94F4050ECF2FE73AE146E02C
S1130E60215030404040E1F700C000000196853138
S1130E70910564F38DE091E00E948A010E94FC05D3
S1130E804BEF51E06CE172E083E091E00E94A40436
S1130E900E94F8051CBEFFCF8AB188698AB980B563
S1130EA0866880BD83E389B910BC08955058BB2778
S1130EB0AA270E946E070C94E8080E94DA0838F00A
S1130EC00E94E10820F039F49F3F19F426F40C94B1
S1130ED0D7080EF4E095E7FB0C94D108E92F0E94A3
S1130EE0F90858F3BA17620773078407950720F0C7
S1130EF079F4A6F50C941B090EF4E0950B2EBA2F89
S1130F00A02D0B01B90190010C01CA01A00111240B
S1130F10FF27591B99F0593F50F4503E68F11A16B7
S1130F20F040A22F232F342F4427585FF3CF469548
S1130F3037952795A795F0405395C9F77EF41F166A
S1130F40BA0B620B730B840BBAF09150A1F0FF0F34
S1130F50BB1F661F771F881FC2F70EC0BA0F621F20
S1130F60731F841F48F4879577956795B795F79510
S1130F709E3F08F0B0CF9395880F08F09927EE0FA5
S1130F809795879508950E94AD0808F481E0089527
S1130F900E94DC070C94E8080E94E10858F00E94C3
S1130FA0DA0840F029F45F3F29F00C94D10851117C
S1130FB00C941C090C94D7080E94F90868F399232F
S1130FC0B1F3552391F3951B550BBB27AA27621741
S1130FD07307840738F09F5F5F4F220F331F441F4E
S1130FE0AA1FA9F335D00E2E3AF0E0E832D0915082
S1130FF05040E695001CCAF72BD0FE2F29D0660F6F
S1131000771F881FBB1F261737074807AB07B0E8B1
S113101009F0BB0B802DBF01FF2793585F4F3AF0B7
S11310209E3F510578F00C94D1080C941C095F3F45
S1131030E4F3983ED4F3869577956795B795F7953D
S11310409F5FC9F7880F911D9695879597F9089525
S1131050E1E0660F771F881FBB1F621773078407C1
S1131060BA0720F0621B730B840BBA0BEE1F88F7D0
S1131070E09508950E9441086894B1110C941C09EC
S113108008950E94010988F09F5798F0B92F992775
S1131090B751B0F0E1F0660F771F881F991F1AF05F
S11310A0BA95C9F714C0B13091F00E941B09B1E0A0
S11310B008950C941B09672F782F8827B85F39F09F
S11310C0B93FCCF3869577956795B395D9F73EF4F8
S11310D090958095709561957F4F8F4F9F4F0895A0
S11310E0E89409C097FB3EF49095809570956195BE
S11310F07F4F8F4F9F4F9923A9F0F92F96E9BB2774
S11311009395F695879577956795B795F111F8CFEF
S1131110FAF4BB0F11F460FF1BC06F5F7F4F8F4F5A
S11311209F4F16C0882311F096E911C0772321F050
S11311309EE8872F762F05C0662371F096E8862FE8
S113114070E060E02AF09A95660F771F881FDAF73F
S1131150880F9695879597F90895990F0008550F6C
S1131160AA0BE0E8FEEF16161706E807F907C0F029
S113117012161306E407F50798F0621B730B840B31
S1131180950B39F40A2661F0232B242B252B21F40B
S113119008950A2609F4A140A6958FEF811D811DAB
S11311A0089597F99F6780E870E060E008959FEFE5
S11311B080EC089500240A941616170618060906EA
S11311C0089500240A9412161306140605060895B9
S11311D0092E0394000C11F4882352F0BB0F40F441
S11311E0BF2B11F460FF04C06F5F7F4F8F4F9F4F81
S11311F0089557FD9058440F551F59F05F3F71F003
S11312004795880F97FB991F61F09F3F79F0879569
S11312100895121613061406551FF2CF4695F1DFF2
S113122008C0161617061806991FF1CF8695710582
S1131230610508940895E894BB2766277727CB01B6
S113124097F908950E94AD0808F48FEF08950E945D
S11312503A090C94E8080E94DA0838F00E94E10880
S113126020F0952311F00C94D1080C94D708112484
S11312700C941C090E94F90870F3959FC1F3950F13
S113128050E0551F629FF001729FBB27F00DB11D06
S1131290639FAA27F00DB11DAA1F649F6627B00D96
S11312A0A11D661F829F2227B00DA11D621F739F7F
S11312B0B00DA11D621F839FA00D611D221F749F8D
S11312C03327A00D611D231F849F600D211D822FD4
S11312D0762F6A2F11249F5750409AF0F1F08823FB
S11312E04AF0EE0FFF1FBB1F661F771F881F915028
S11312F05040A9F79E3F510580F00C94D1080C94FE
S11313001C095F3FE4F3983ED4F38695779567957F
S1131310B795F795E7959F5FC1F7FE2B880F911D51
S11313209695879597F90895A1E21A2EAA1BBB1BDF
S1131330FD010DC0AA1FBB1FEE1FFF1FA217B3079D
S1131340E407F50720F0A21BB30BE40BF50B661FB3
S1131350771F881F991F1A9469F760957095809577
S113136090959B01AC01BD01CF010895EF920F93BD
S11313701F93CF93DF93E80147FD02C034E001C01F
S113138034E1042E000C550B57FF03C051954195D1
S11313905109E32E022F242FAE010E942B0CCE0103
S11313A0DF91CF911F910F91EF90089566277727D2
S11313B00C94850D1F93FC0199278827BC01E894A0
S11313C011911032E9F3193010F01E30C8F31B32BA
S11313D051F01D3249F4689406C00E94130A610F4B
S11313E0711D811D911D119110531A30B0F33EF4FB
S11313F090958095709561957F4F8F4F9F4F1F916A
S11314000895FB01DC010D900020E9F7119701908C
S11314100D920020E1F70895FB01DC0101900D928B
S11314200020E1F70895592F482F372F262F660FF4
S1131430771F881F991F660F771F881F991F620FD8
S1131440731F841F951F660F771F881F991F0895A8
S1131450AEE0B0E0EEE2FAE00C9498100D891E893B
S113146086E08C831A8309838FEF9FE79E838D83A5
S1131470AE01475E5F4F6F89788DCE0101960E9461
S11314804A0AEF81F885E00FF11F10822E96E4E0FE
S11314900C94B410ABE0B0E0E0E5FAE00C948A10F0
S11314A06C017B018A01FC0117821682838181FF12
S11314B0CCC1CE0101963C01F6019381F70193FD65
S11314C0859193FF81917F01882309F4BAC1853204
S11314D039F493FD859193FF81917F01853229F43D
S11314E0B60190E00E94E20FE7CF912C212C312C21
S11314F0FFE1F315D8F08B3279F038F4803279F0CB
S11315008332A1F4232D20611DC08D3261F080331C
S113151069F4232D216016C0832D8260382EE32DBB
S1131520E4603E2E2AC0F32DF8601DC037FC2DC0A8
S113153020ED280F2A3040F08E32B9F436FC81C1F8
S1131540232D2064322E19C036FE06C08AE0989EF0
S1131550200D1124922E11C0EAE02E9E200D11249C
S1131560222EF32DF0623F2E08C08C3621F4832DF9
S11315708068382E02C0883641F4F70193FD8591C6
S113158093FF81917F018111B3CF982F9F7D955453
S1131590933028F40C5F1F4F9FE399830DC083366B
S11315A031F0833771F0833509F059C021C0F80157
S11315B0808189830E5F1F4F88248394912C53016B
S11315C013C02801F2E04F0E511CF801A080B18035
S11315D036FE03C0692D70E002C06FEF7FEFC501D6
S11315E00E94D70F4C018201F32DFF773F2E16C0C6
S11315F0280122E0420E511CF801A080B18036FE81
S113160003C0692D70E002C06FEF7FEFC5010E9437
S1131610CC0F4C01F32DF0683F2E820133FC1BC02C
S1131620822D90E088169906B0F4B60180E290E02D
S11316300E94E20F2A94F4CFF50137FC859137FE1E
S113164081915F01B60190E00E94E20F21102A947B
S113165021E0821A91088114910471F7E8C084365C
S113166011F0893641F5F80137FE07C060817181B8
S1131670828193810C5F1F4F08C060817181072EA6
S1131680000C880B990B0E5F1F4FF32DFF763F2E36
S113169097FF09C090958095709561957F4F8F4F06
S11316A09F4FF0683F2E2AE030E0A3010E941E10F5
S11316B0882E861845C0853731F4232D2F7EB22E0F
S11316C02AE030E025C0932D997FB92E8F36C1F0E2
S11316D018F4883579F0B5C0803719F0883721F0CF
S11316E0B0C0E92FE061BE2EB4FE0DC0FB2DF46046
S11316F0BF2E09C034FE0AC0292F2660B22E06C0B0
S113170028E030E005C020E130E002C020E132E012
S1131710F801B7FE07C060817181828193810C5FFB
S11317201F4F06C06081718180E090E00E5F1F4F03
S1131730A3010E941E10882E8618FB2DFF773F2ED2
S113174036FE0DC0232D2E7FA22E891458F434FEAC
S11317500BC032FC09C0832D8E7EA82E05C0B82C88
S1131760A32C03C0B82C01C0B92CA4FE0FC0FE01E9
S1131770E80DF11D8081803321F49A2D997EA92EE4
S113178009C0A2FE06C0B394B39404C08A2D86781F
S113179009F0B394A3FC11C0A0FE06C0B21488F4EF
S11317A0280C922C9B180EC0B21460F4B60180E28F
S11317B090E00E94E20FB394F7CFB21418F42B1800
S11317C002C0982C212CA4FE10C0B60180E390E046
S11317D00E94E20FA2FE17C0A1FC03C088E790E0BC
S11317E002C088E590E0B6010CC08A2D867859F0D5
S11317F0A1FE02C08BE201C080E2A7FC8DE2B6012B
S113180090E00E94E20F891438F4B60180E390E07E
S11318100E94E20F9A94F7CF8A94F301E80DF11D28
S11318208081B60190E00E94E20F8110F5CF222062
S113183009F442CEB60180E290E00E94E20F2A94BD
S1131840F6CFF6018681978102C08FEF9FEF2B962A
S1131850E2E10C94A610A9E0B0E0E1E3FCE00C9412
S113186090106A01122FB02E2BE3201720F0FF24D2
S1131870F394F00E02C02CE3F22E0F2D27E0AE01FC
S11318804F5F5F4F0E94D30EBC014981842F897042
S1131890813031F0E1FC06C0E0FE06C090E205C0F4
S11318A09DE203C09BE201C090E05E2D507143FFB6
S11318B03CC0911102C083E001C084E0811718F498
S11318C0212F281B01C020E051110BC0F601822FEB
S11318D030E2882319F031938150FBCFC20ED11C22
S11318E020E0992329F0D6019C93F60131966F01EB
S11318F0C6010396E2FE0AC03EE4D6013C9341E4ED
S113190011964C93119712963C9306C03EE6F6014D
S1131910308341E641833283FC01322F40E233239A
S113192009F442C041933150FACF42FF44C09111AF
S113193002C083E001C084E0811718F4212F281B22
S113194001C020E051110BC0F601822F30E2882340
S113195019F031938150FBCFC20ED11C20E09923A2
S113196029F0D6019C93F60131966F01C6010396C6
S1131970E2FE0BC039E4D6013C933EE411963C935D
S1131980119736E412963C9307C039E6F60130838A
S11319903EE6318336E63283FC01322F40E23323C4
S11319A019F041933150FBCFFC01E20FF11D10827D
S11319B08EEF9FEFA6C021E030E0911102C020E03D
S11319C030E0161617061CF4FB01319602C0E1E064
S11319D0F0E02E0F3F1FBB2021F0EB2DF0E03196FD
S11319E002C0E0E0F0E02E0F3F1FE12FF0E02E17E1
S11319F03F071CF4121B212F01C020E08E2D88719B
S1131A0059F4F601822F30E2882319F03193815082
S1131A10FBCFC20ED11C20E0992329F0D6019C9360
S1131A20F60131966F0151110BC0F601822F90E33C
S1131A30882319F091938150FBCFC20ED11C20E072
S1131A400F2D060F9A81342F307144FF03C0913358
S1131A5009F40150101624F4093018F008E001C00C
S1131A6001E0AB0177FF02C040E050E0FB01E41B62
S1131A70F50BA1E0B0E0AC0FBD1FEA0FFB1F8EE237
S1131A80A82E4B01801A91080B2D10E01195019599
S1131A9011094F3FBFEF5B0721F4D601AC921196B9
S1131AA06D01641775072CF08416950614F4818172
S1131AB001C080E3415051093196D60111967D0150
S1131AC04017510724F0D6018C936701E2CF6417C5
S1131AD0750739F4963320F4953319F4311101C0A4
S1131AE081E3F6018083F701822F90E2882319F0C5
S1131AF091938150FBCFF701E20FF11D108280E03A
S1131B0090E02996ECE00C94AC10A0E0B0E0EBE897
S1131B10FDE00C949010EC016B016115710519F056
S1131B20FB01918380837E01FFEFEF1AFF0A088196
S1131B30802F90E00E94AB0F892B11F0E701F3CFC7
S1131B400D3239F47E0182E0E80EF11C098111E0C6
S1131B5008C00B3229F47E0192E0E90EF11C0981E0
S1131B6010E0E701219743E050E06CE570E0CE011E
S1131B700E94B40F892BC1F4239645E050E067E539
S1131B8070E0CE010E94B40F892B09F42596C1148C
S1131B90D10419F0F601D183C0831111F6C060E0BD
S1131BA070E080E89FE7FAC043E050E064E570E04D
S1131BB0CE010E94B40F892B59F4C114D10409F445
S1131BC0E9C0F2E0EF0EF11CF601F182E082E2C01E
S1131BD020E030E0A901C0E0D0E0F70180EDA82EBC
S1131BE0A00E89E08A1530F1912F9260B92E812FD1
S1131BF0887012FF04C0811124C0219622C0811173
S1131C002197A5E0B0E00E947F10DC01CB01880F92
S1131C10991FAA1FBB1F9C01AD012A0D311D411D37
S1131C20511D283989E93807480789E1580748F0E0
S1131C30166006C09EEFA9120AC013FD40C01860CA
S1131C40B12E8FEFE81AF80A00811B2DC6CF802F22
S1131C508F7D8534A1F580818D3211F4106106C029
S1131C608B3221F0319661E070E004C081813296BC
S1131C7062E070E080538A3018F0E61BF70B1FC057
S1131C8060E070E060389CE079075CF4DB01AA0F47
S1131C90BB1FAA0FBB1F6A0F7B1F660F771F680F3E
S1131CA0711D3196DF0111978C9180538A3050F366
S1131CB014FF03C0719561957109C60FD71F11FFF9
S1131CC008C0C114D10429F0CF010197F601918312
S1131CD08083CA01B9010E947008212F2370233028
S1131CE019F04B015C0106C04B015C01B7FAB094DA
S1131CF0B7F8B09420E030E0A901C501B4010E9416
S1131D00C307882309F43EC0D7FF06C0D195C19507
S1131D10D10903E710E002C00BE810E06801F8E124
S1131D20CF1AD10890E2E92EF12CCE15DF0574F01C
S1131D30F8012591359145915491C501B4010E9452
S1131D4027094B015C01CE19DF09EFCF04501109BB
S1131D50F594E7940C151D0541F78A2D880F8B2DFA
S1131D60881F8F3F49F020E030E0A901C501B4018C
S1131D700E94C307811106C082E290E090934C0256
S1131D8080934B02C501B40109C060E070E080E8B3
S1131D909FEF04C060E070E080EC9FE7CDB7DEB752
S1131DA0ECE00C94AC10283008F027E03327DA017B
S1131DB0990F311D87FD916000966105710539F415
S1131DC032602E5F3D9330E32A95E1F708959F3FFB
S1131DD030F080387105610509F03C5F3C5F3D934C
S1131DE0913008F08068911DDF93CF931F930F9378
S1131DF0FF92EF92192F987F9695E92F96959695D5
S1131E00E90FFF27E751FF4F99273327EE24FF24DB
S1131E10A701E70105900894079428F4360FE71EFC
S1131E20F81E491F511D660F771F881F991F0694BE
S1131E30A1F70590079428F4E70EF81E491F561FD2
S1131E40C11D770F881F991F661F0694A1F705907F
S1131E50079428F4F80E491F561FC71FD11D880F79
S1131E60991F661F771F0694A1F70590079420F425
S1131E70490F561FC71FD81F990F661F771F881F4A
S1131E800694A9F784911095177041F0D695C795DB
S1131E9057954795F794E7941A95C1F7EFE8F0E062
S1131EA068941590159135916591959105907FE20F
S1131EB07395E118F10A430B560BC90BD009C0F70F
S1131EC0E10CF11E431F561FC91FD01D7EF4703351
S1131ED011F48A95E6CFE894015030F0080F0AF423
S1131EE00027021708F4202F2395022F7A3328F0B5
S1131EF079E37D932A95E9F710C07D932A9589F6B5
S1131F00069497956795379517951794E118F10AF4
S1131F10430B560BC90BD00998F023957E9173950A
S1131F207A3308F070E37C932013B8F77E917061E4
S1131F307D9330F0839571E37D9370E32A95E1F707
S1131F401124EF90FF900F911F91CF91DF9199276A
S1131F5087FD9095089591110C947C10803219F0AE
S1131F6089508550C8F70895FB01DC014150504069
S1131F7088F08D9181341CF08B350CF4805E659172
S1131F8061341CF06B350CF4605E861B611171F3D7
S1131F90990B0895881BFCCFFC010590615070409B
S1131FA00110D8F7809590958E0F9F1F0895FC011E
S1131FB06150704001900110D8F7809590958E0F74
S1131FC09F1F08950F931F93CF93DF93FB012381EA
S1131FD021FD03C08FEF9FEF2CC022FF16C0468166
S1131FE05781248135814217530744F4A081B1817C
S1131FF09D012F5F3F4F318320838C93268137814E
S11320002F5F3F4F3783268314C08B01EC01FB0104
S11320100084F185E02D0995892BE1F6D801169607
S11320208D919C911797019617969C938E93169772
S1132030CE01DF91CF911F910F910895FA01AA2744
S1132040283051F1203181F1E8946F936E7F6E5FF7
S11320507F4F8F4F9F4FAF4FB1E03ED0B4E03CD0A5
S1132060670F781F891F9A1FA11D680F791F8A1F88
S1132070911DA11D6A0F711D811D911DA11D20D0EF
S113208009F468943F912AE0269F11243019305DA9
S11320903193DEF6CF010895462F4770405D41939A
S11320A0B3E00FD0C9F7F6CF462F4F70405D4A33E7
S11320B018F0495D31FD4052419302D0A9F7EACFAF
S11320C0B4E0A6959795879577956795BA95C9F7DE
S11320D000976105710508959B01AC010A2E0694D1
S11320E05795479537952795BA95C9F7620F731F8A
S11320F0841F951FA01D08959927882708950E947D
S1132100C110A59F900DB49F900DA49F800D911DAB
S1132110112408952F923F924F925F926F927F9273
S11321208F929F92AF92BF92CF92DF92EF92FF92E3
S11321300F931F93CF93DF93CDB7DEB7CA1BDB0B8F
S11321400FB6F894DEBF0FBECDBF09942A88398834
S113215048885F846E847D848C849B84AA84B9843B
S1132160C884DF80EE80FD800C811B81AA81B98147
S1132170CE0FD11D0FB6F894DEBF0FBECDBFED015B
S11321800895A29FB001B39FC001A39F700D811D4C
S11321901124911DB29F700D811D1124911D08956C
S10721A0F894FFCFDD
S11321A441542B434D47533D000025643A25643A7A
S11321B42564000D4C6F636174696F6E0D202020DB
S11321C44C6F6E676974756465203A20000D202095
S11321D4204C61746974756465203A20004D6573FC
S11321E47361676500466F7277617264696E670034
S11321F44D6573736167652073656E740041542B78
S1132204434D47463D310030373731323334353668
S11322143700466C616D6520446574656374656458
S1132224202100466C616D652044657465637465A2
S11322346400416C636F686F6C20446574656374F7
S113224465640044726976657220697320536C6511
S10922546570696E67006D
S9030000FC
