S010000046756C6C436F64652E7372656306
S11300000C94C5000C94E2000C94E2000C94E20001
S11300100C94E2000C94E2000C94E2000C94E200D4
S11300200C94E2000C94E2000C94E2000C94E200C4
S11300300C94E2000C9451030C94E2000C94E20042
S11300400C94E2000C94E2000C94E2000C94E200A4
S11300500C94E2004E414E494E495459494E46CD06
S1130060CCCC3D0AD7233C17B7D13877CC2B32956B
S113007095E6241FB14F0A000020410000C8420049
S1130080401C4620BCBE4CCA1B0E5AAEC59D740013
S1130090407A10F35A00A0724E18090010A5D4E853
S11300A00000E87648170000E40B54020000CA9AE6
S11300B03B000000E1F50500008096980000004038
S11300C0420F000000A0860100000010270000007D
S11300D000E803000000006400000000000A0000C3
S11300E00000000100000000002C76D888DC674F77
S11300F00823DFC1DFAE59E1B1B796E5E3E453C6A7
S11301003AE651997696E8E6C28426EB898C9B629E
S1130110ED407C6FFCEFBC9C9F40F2BAA56FA5F448
S113012090055A2AF75C936B6CF9676DC11BFCE070
S1130130E40D47FEF520E6B500D0ED902E030094C3
S11301403577050080841E080000204E0A00000058
S1130150C80C333333330F986E12831141EF8D2162
S113016014893BE65516CFFEE6DB18D1844B381BC9
S1130170F77C1D901DA4BBE424203284725E22818E
S113018000C9F124ECA1E53D270011241FBECFE5F1
S1130190D8E0DEBFCDBF11E0A0E6B0E0ECE6FDE1C3
S11301A002C005900D92A63AB107D9F722E0A6EA5B
S11301B0B1E001C01D92A43CB207E1F70E94DF0642
S11301C00C94B40E0C94000011B880E280B9089528
S11301D094EA96BF06B607FEFDCF91B1987F9031A1
S11301E071F483B984E886BF06B607FEFDCF81B1FA
S11301F0887F803431F0803231F482E0089580E0E9
S1130200089581E0089583E0089584E986BF06B6E1
S113021004FCFDCF0895CF93C82F84EA86BF06B6A9
S113022007FEFDCF81B1887F8830B9F7C3B984E870
S113023086BF06B607FEFDCF81B1887F883119F0ED
S11302400E940501EACFCF91089583B984E886BF5F
S113025006B607FEFDCF81B1887F883221F0803356
S113026021F481E0089580E0089582E0089584EC0B
S113027086BF06B607FEFDCF83B1089584E886BF26
S113028006B607FEFDCF83B1089598B39F70282F5B
S1130290207F922B98BB98B39E7F98BB98B39260B3
S11302A098BB32E03A95F1F700C098B39D7F98BBB4
S11302B0EFE8F1E03197F1F700C0000028B3F0E176
S11302C08F9FC0011124922F9F70892B88BB88B304
S11302D0826088BB32E03A95F1F700C088B38D7F25
S11302E088BB8FE99FE00197F1F700C000000895F3
S11302F098B39F70282F207F922B98BB98B391605E
S113030098BB98B3926098BB32E03A95F1F700C07D
S113031098B39D7F98BBEFE8F1E03197F1F700C007
S1130320000028B3F0E18F9FC0011124922F9F7029
S1130330892B88BB88B3826088BB32E03A95F1F799
S113034000C088B38D7F88BB8FE99FE00197F1F7E8
S113035000C0000008958FEF87BB8FE39CE90197ED
S1130360F1F700C0000083E30E94450182E30E948C
S1130370450188E20E9445018CE00E94450186E027
S11303800E94450181E00E9445018FE99FE00197A9
S1130390F1F700C0000080E80E94450108950F9322
S11303A01F93CF93DF938C01C0E0D0E003C00E9481
S11303B078012196F801EC0FFD1F80818111F7CFA0
S11303C0DF91CF911F910F910895CF93DF93EA01AD
S11303D0811108C0603130F4862F8F7080680E94CC
S11303E0450109C0813039F4603128F4862F8F70BB
S11303F0806C0E944501CE010E94CF01DF91CF9114
S1130400089581E00E9445018FE99FE00197F1F78B
S113041000C0000080E80E94450108952AB12869BF
S11304202AB920B5266820BDDC01CB01880F991FAD
S1130430AA1FBB1F880F991FAA1FBB1F9C01AD01D8
S1130440220F331F441F551F220F331F441F551FF4
S113045060E072E18AE790E00E946E0A8FEF820FFB
S113046089B9DA01C9010197A109B109892F9A2F24
S1130470AB2FBB2780BD08955D9BFECF8CB908953B
S11304801ABA87E886B980E487B9089597B18F705E
S1130490982B97B986B1806486B9349BFECF8AE1E4
S11304A08A95F1F700C024B185B190E0982F882790
S11304B0820F911D0895F8948F5F90E007C0E92F93
S11304C0F0E0E654FD4F20839F5F8F5F482F50E09C
S11304D0FA01E555FE4F20812C3289F7E92FF0E02F
S11304E0DA01A455BE4F8C91E654FD4F8083789475
S11304F008958F929F92AF92BF92CF92DF92EF9224
S1130500FF920F931F930E94B00A20E030E048EC62
S113051052E40E94A2086B017C010E941409072E78
S1130520000C880B990B0E944C094B015C019B0148
S1130530AC01C701B6010E9430082AE939E949E152
S11305405FE30E94A2089B01AC01C501B4010E94B3
S1130550310806EA12E024E046E00E94900A1F9166
S11305600F91FF90EF90DF90CF90BF90AF909F904E
S11305708F900895F8948F5F90E007C0E92FF0E022
S1130580E158FD4F20839F5F8F5FE82FF0E0E55532
S1130590FE4F20812C3291F731E0390FE92FF0E042
S11305A08F5FE158FD4F2083232F30E0E82FF0E0E8
S11305B0E555FE4F8081F901E158FD4F80838FE7B7
S11305C092E00E947902789408958F929F92AF925C
S11305D0BF92CF92DF92EF92FF920F931F930E94EC
S11305E0B00A20E030E048EC52E40E94A2086B011B
S11305F07C010E941409072E000C880B990B0E94A1
S11306004C094B015C019B01AC01C701B6010E947E
S113061030082AE939E949E15FE30E94A2089B0115
S1130620AC01C501B4010E9431080DE412E024E0DC
S113063046E00E94900A1F910F91FF90EF90DF9087
S1130640CF90BF90AF909F908F900895F8948F5F54
S113065090E007C0E92FF0E0EF59FD4F20839F5F42
S11306608F5FE82FF0E0E555FE4F20812C3291F7A3
S113067031E0390FE92FF0E08F5FEF59FD4F208310
S1130680232F30E0E82FF0E0E555FE4F8081F9019B
S1130690EF59FD4F808381E692E00E94E502789451
S11306A008951F920F920FB60F9211242F933F9328
S11306B04F935F938F939F93EF93FF939FB7F89418
S11306C08CB1843259F410927B0210927A02109207
S11306D07902109278021092A60145C02091A601D9
S11306E0222329F18C3299F42091780230917902F5
S11306F0A9014F5F5F4F5093790240937802409174
S11307007A0250917B02F901EE56FD4F408320910D
S11307107A0230917B02A9014F5F5F4F50937B02B5
S113072040937A02F901E555FE4F80831CC0209165
S11307307C02273489F420917D02273469F42091C6
S11307407E02213449F481E08093A601ECE7F2E0D3
S113075010821182128207C0ECE7F2E0218120832B
S11307602281218382839FBFFF91EF919F918F917B
S11307705F914F913F912F910F900FBE0F901F905B
S113078018952FE789EA93E0215080409040E1F7E3
S113079000C0000080ED0E940B0189E10E94250148
S11307A087E00E9425010E94050180ED0E940B0153
S11307B08BE60E94250181E00E9425010E9405012B
S11307C080ED0E940B018AE10E94250180E00E94D5
S11307D025010E94050180ED0E940B018BE10E941E
S11307E0250188E10E9425010E94050180ED0E94F7
S11307F00B0188E30E94250181E00E9425010E94EB
S11308000501089580ED0E940B018BE30E942501F0
S113081081ED0E94E8000895CF93DF930E940204C3
S11308200E943701C82FD0E0DC2FCC270E9437016B
S1130830BE01682B072E000C880B990B0E944C09F3
S1130840609374027093750280937602909377029A
S11308500E943701C82FD0E0DC2FCC270E9437013B
S1130860BE01682B072E000C880B990B0E944C09C3
S11308706093490270934A0280934B0290934C0216
S11308800E943701C82FD0E0DC2FCC270E9437010B
S1130890BE01682B072E000C880B990B0E944C0993
S11308A06093A7017093A8018093A9019093AA0172
S11308B00E943701C82FD0E0DC2FCC270E943701DB
S11308C0BE01682B072E000C880B990B0E944C0963
S11308D060934502709346028093470290934802C6
S11308E00E943701C82FD0E0DC2FCC270E943701AB
S11308F0BE01682B072E000C880B990B0E944C0933
S113090060934102709342028093430290934402A5
S11309100E943701C82FD0E0DC2FCC270E9437017A
S1130920BE01682B072E000C880B990B0E944C0902
S113093060938E0270938F02809390029093910241
S11309400E943701C82FD0E0DC2FCC270E943E0143
S1130950BE01682B072E000C880B990B0E944C09D2
S11309606093700270937102809372029093730289
S11309700E940501DF91CF9108954F925F926F928B
S11309807F928F929F92AF92BF92CF92DF92EF921B
S1130990FF920F931F934B015C0129013A016701F8
S11309A0780120E030E040E050ECC701B6010E943D
S11309B0FC091816ACF520E030E040E050E4C70133
S11309C0B6010E949D08882374F520E030E040E4DD
S11309D050ECC501B4010E94FC0918163CF520E056
S11309E030E040E450E4C501B4010E949D0888232E
S11309F004F520E030E040E051E4C301B2010E947C
S1130A00FC098823CCF020E030E040E151E4C3014C
S1130A10B2010E949D08181694F481E090E011C080
S1130A2081E090E00EC081E090E00BC081E090E0B6
S1130A3008C081E090E005C081E090E002C080E061
S1130A4090E01F910F91FF90EF90DF90CF90BF90B7
S1130A50AF909F908F907F906F905F904F9008958C
S1130A6089E683BF87B3886087BB0895CF92DF92FE
S1130A70EF92FF920F931F93CF93DF93CDB7DEB71F
S1130A80A3970FB6F894DEBF0FBECDBF7C016A01F9
S1130A90890181E494E59A8389831C821B828AE01C
S1130AA0E7ECF0E0DE01159601900D928A95E1F7EE
S1130AB089E0E0E6F0E0DE011F9601900D928A9550
S1130AC0E1F7188ED7010D900020E9F711978CE11A
S1130AD0EAE6F0E001900D928A95E1F7C7010E94E1
S1130AE0B40AD7010D900020E9F7119781E1E6E8F7
S1130AF0F0E001900D928A95E1F7B601C7010E94DA
S1130B00B40AD7010D900020E9F7119780E1E7E9D5
S1130B10F0E001900D928A95E1F7B801C7010E94B7
S1130B20B40A8BE0E1EDF0E0DE01599601900D92FC
S1130B308A95E1F70E94010247EA50E060E081E013
S1130B400E94E50180EC0E9445014FEA50E063E019
S1130B5082E00E94E5012FEF84E39CE02150804075
S1130B609040E1F700C0000000E010E00AC00E94DD
S1130B703C028FE097E20197F1F700C000000F5F9D
S1130B801F4FE1E0F0E0EC0FFD1FE00FF11F80814B
S1130B908111EDCF8DE00E943C028FE097E2019736
S1130BA0F1F700C0000000E010E00AC00E943C021F
S1130BB08FE097E20197F1F700C000000F5F1F4F2D
S1130BC0E5E0F0E0EC0FFD1FE00FF11F80818111E3
S1130BD0EDCF8DE00E943C028FE097E20197F1F7A0
S1130BE000C0000000E010E00AC00E943C028FE058
S1130BF097E20197F1F700C000000F5F1F4FEFE08D
S1130C00F0E0EC0FFD1FE00FF11F80818111EDCFAB
S1130C1082E28CB99FEF20E782E09150204080402F
S1130C20E1F700C0000000E010E00AC00E943C02AE
S1130C308FE097E20197F1F700C000000F5F1F4FAC
S1130C40E9E1F0E0EC0FFD1FE00FF11F808181115D
S1130C50EDCF82E28CB98FE097E20197F1F700C003
S1130C6000008DE08CB98FE097E20197F1F700C0A6
S1130C70000000E010E00AC00E943C028FE097E20E
S1130C800197F1F700C000000F5F1F4FF701E00F5D
S1130C90F11F80818111F0CF9FEF21EE84E091500C
S1130CA020408040E1F700C000000E9401024AEBAE
S1130CB050E060E081E00E94E5019FEF22E587E0DB
S1130CC0915020408040E1F700C000000E940102E2
S1130CD0A3960FB6F894DEBF0FBECDBFDF91CF91C0
S1130CE01F910F91FF90EF90DF90CF90089582B302
S1130CF0806882BB089582B38F7782BB089582B3E4
S1130D00806482BB089582B38F7B82BB089582B3D3
S1130D10806282BB0895CF93DF930E9401028CED21
S1130D2090E00E94CF0181E090E0C0E0D0E00FC0ED
S1130D309E9B02C0219601C021972FE738E341E032
S1130D40215030404040E1F700C000000196893254
S1130D50910574F380EC0E9445018AEE90E00E94B4
S1130D60CF01A89719F481E090E002C080E090E000
S1130D70DF91CF9108950F931F93CF93DF938C014D
S1130D80C2E9D2E0888190E00E94BA028A8190E0B0
S1130D900E9426038F8190E00E945B0284E082BB64
S1130DA02AEB32E04DE452E066EA72E0C8010E94A8
S1130DB0360512BADF91CF911F910F91089584EEF9
S1130DC081BB0E94AB0186EF90E00E94CF012FE728
S1130DD038E341E0215030404040E1F700C00000DA
S1130DE00E9401020E94E4000E94C1030E94300597
S1130DF010927B0210927A0260E875E280E090E043
S1130E000E940E02789485E091E00E94CF018FEF5A
S1130E1090E722E0815090402040E1F700C00000BC
S1130E200E9401029C9B1EC00E9401028DE091E081
S1130E300E94CF010E9477060E947F063FEF44E3A1
S1130E408CE0315040408040E1F700C000000E9437
S1130E507B060E9483060E9401028EE191E00E94BB
S1130E60BB06E0CF0E94400281E00E9446028E361B
S1130E7091050CF4DEC080E00E944602BC01990F8B
S1130E80880B990B0E944C0920E030E040E85AE3BB
S1130E900E94010A20E030E04FE753E40E94010A77
S1130EA00E9414096CBF0E94010280E391E00E9439
S1130EB0CF019D9B1AC00E9401028DE391E00E9424
S1130EC0CF010E9477069FEF20E732E09150204047
S1130ED03040E1F700C000000E947B060E9401023E
S1130EE08DE391E00E94BB069DCF0E940C0420E09C
S1130EF030E040E858E3609174027091750280918B
S1130F007602909177020E94010A25ED37EE4CE1BA
S1130F1051E40E94010A4B015C0120E030E040E80A
S1130F2058E36091490270914A0280914B0290917A
S1130F304C020E94010A25ED37EE4CE151E40E9477
S1130F40010A2B013C0120E030E040E858E36091C5
S1130F50A7017091A8018091A9019091AA010E9412
S1130F60010A25ED37EE4CE151E40E94010A6B01C0
S1130F707C010E948B06892B09F454CF87017601EA
S1130F80A3019201C501B4010E94BD04892B09F497
S1130F9049CF0E94010287E891E00E94CF010E949C
S1130FA077060E947F0680EC0E9445018EE491E062
S1130FB00E94CF0181E090E013C09B9B07C00E9478
S1130FC07B060E9483060E9401021DCF4FE72AE19F
S1130FD036E0415020403040E1F700C00000019667
S1130FE08531910554F30E94010288E591E00E9445
S1130FF0CF0180EC0E94450180E691E00E94CF0180
S11310000E9483060E947B061CBE0E94010289E6A0
S113101091E00E94CF0180EC0E94450182E791E0BB
S11310200E94CF018DE791E00E94BB060E948706D3
S1131030FFCF80E991E00E94CF0180EC0E9445013E
S11310408BE991E00E94CF014FE788E391E04150A2
S113105080409040E1F700C000000E940102E2CE0F
S11310605058BB27AA270E9448080C94C2090E9422
S1131070B40938F00E94BB0920F039F49F3F19F4F9
S113108026F40C94B1090EF4E095E7FB0C94AB093B
S1131090E92F0E94D30958F3BA176207730784072C
S11310A0950720F079F4A6F50C94F5090EF4E09573
S11310B00B2EBA2FA02D0B01B90190010C01CA010E
S11310C0A0011124FF27591B99F0593F50F4503EB9
S11310D068F11A16F040A22F232F342F4427585FAB
S11310E0F3CF469537952795A795F0405395C9F7C3
S11310F07EF41F16BA0B620B730B840BBAF091507B
S1131100A1F0FF0FBB1F661F771F881FC2F70EC019
S1131110BA0F621F731F841F48F4879577956795EC
S1131120B795F7959E3F08F0B0CF9395880F08F0D8
S11311309927EE0F9795879508950E94870908F4DB
S113114081E008950E94B6080C94C2090E94BB096C
S113115058F00E94B40940F029F45F3F29F00C9440
S1131160AB0951110C94F6090C94B1090E94D309EE
S113117068F39923B1F3552391F3951B550BBB27C2
S1131180AA2762177307840738F09F5F5F4F220F07
S1131190331F441FAA1FA9F335D00E2E3AF0E0E8FE
S11311A032D091505040E695001CCAF72BD0FE2F48
S11311B029D0660F771F881FBB1F261737074807DC
S11311C0AB07B0E809F0BB0B802DBF01FF27935894
S11311D05F4F3AF09E3F510578F00C94AB090C94A4
S11311E0F6095F3FE4F3983ED4F3869577956795C7
S11311F0B795F7959F5FC9F7880F911D96958795C9
S113120097F90895E1E0660F771F881FBB1F6217E7
S113121073078407BA0720F0621B730B840BBA0BA5
S1131220EE1F88F7E09508950E941B096894B11198
S11312300C94F60908950E94DB0988F09F5798F0F2
S1131240B92F9927B751B0F0E1F0660F771F881FC7
S1131250991F1AF0BA95C9F714C0B13091F00E94E1
S1131260F509B1E008950C94F509672F782F8827C4
S1131270B85F39F0B93FCCF3869577956795B39508
S1131280D9F73EF490958095709561957F4F8F4F77
S11312909F4F0895E89409C097FB3EF4909580957C
S11312A0709561957F4F8F4F9F4F9923A9F0F92F28
S11312B096E9BB279395F695879577956795B795A6
S11312C0F111F8CFFAF4BB0F11F460FF1BC06F5F8C
S11312D07F4F8F4F9F4F16C0882311F096E911C09E
S11312E0772321F09EE8872F762F05C0662371F0BF
S11312F096E8862F70E060E02AF09A95660F771FD3
S1131300881FDAF7880F9695879597F90895990FAE
S11313100008550FAA0BE0E8FEEF16161706E807BB
S1131320F907C0F012161306E407F50798F0621BDC
S1131330730B840B950B39F40A2661F0232B242BB1
S1131340252B21F408950A2609F4A140A6958FEFD0
S1131350811D811D089597F99F6780E870E060E022
S113136008959FEF80EC089500240A94161617063A
S113137018060906089500240A9412161306140682
S113138005060895092E0394000C11F4882352F0E5
S1131390BB0F40F4BF2B11F460FF04C06F5F7F4F9D
S11313A08F4F9F4F089557FD9058440F551F59F084
S11313B05F3F71F04795880F97FB991F61F09F3F3E
S11313C079F087950895121613061406551FF2CF67
S11313D04695F1DF08C0161617061806991FF1CFB7
S11313E086957105610508940895E894BB276627DE
S11313F07727CB0197F908950E94870908F48FEFA6
S113140008950E94140A0C94C2090E94B40938F089
S11314100E94BB0920F0952311F00C94AB090C94A5
S1131420B10911240C94F6090E94D30970F3959F15
S1131430C1F3950F50E0551F629FF001729FBB27C7
S1131440F00DB11D639FAA27F00DB11DAA1F649F63
S11314506627B00DA11D661F829F2227B00DA11D16
S1131460621F739FB00DA11D621F839FA00D611D9C
S1131470221F749F3327A00D611D231F849F600DBD
S1131480211D822F762F6A2F11249F5750409AF0E6
S1131490F1F088234AF0EE0FFF1FBB1F661F771F72
S11314A0881F91505040A9F79E3F510580F00C943D
S11314B0AB090C94F6095F3FE4F3983ED4F38695A8
S11314C077956795B795F795E7959F5FC1F7FE2BDD
S11314D0880F911D9695879597F90895A1E21A2E84
S11314E0AA1BBB1BFD010DC0AA1FBB1FEE1FFF1FC4
S11314F0A217B307E407F50720F0A21BB30BE40B14
S1131500F50B661F771F881F991F1A9469F760955A
S11315107095809590959B01AC01BD01CF01089514
S1131520EF920F931F93CF93DF93E80147FD02C01F
S113153034E001C034E1042E000C550B57FF03C006
S1131540519541955109E32E022F242FAE010E949B
S1131550BF0ACE01DF91CF911F910F91EF900895B3
S1131560662777270C94190CFB01DC010D900020F1
S1131570E9F7119701900D920020E1F70895A9E091
S1131580B0E0E5ECFAE00C94740E6A01122FB02E70
S11315902BE3201720F0FF24F394F00E02C02CE379
S11315A0F22E0F2D27E0AE014F5F5F4F0E94670DB3
S11315B0BC014981842F8970813031F0E1FC06C07F
S11315C0E0FE06C090E205C09DE203C09BE201C0BC
S11315D090E05E2D507143FF3CC0911102C083E046
S11315E001C084E0811718F4212F281B01C020E0DA
S11315F051110BC0F601822F30E2882319F0319388
S11316008150FBCFC20ED11C20E0992329F0D601D2
S11316109C93F60131966F01C6010396E2FE0AC05F
S11316203EE4D6013C9341E411964C9311971296F3
S11316303C9306C03EE6F601308341E641833283A3
S1131640FC01322F40E2332309F442C0419331506C
S1131650FACF42FF44C0911102C083E001C084E08C
S1131660811718F4212F281B01C020E051110BC051
S1131670F601822F30E2882319F031938150FBCF99
S1131680C20ED11C20E0992329F0D6019C93F601C7
S113169031966F01C6010396E2FE0BC039E4D60110
S11316A03C933EE411963C93119736E412963C9396
S11316B007C039E6F60130833EE6318336E63283ED
S11316C0FC01322F40E2332319F041933150FBCF18
S11316D0FC01E20FF11D10828EEF9FEFA6C021E006
S11316E030E0911102C020E030E0161617061CF419
S11316F0FB01319602C0E1E0F0E02E0F3F1FBB205A
S113170021F0EB2DF0E0319602C0E0E0F0E02E0F86
S11317103F1FE12FF0E02E173F071CF4121B212F6F
S113172001C020E08E2D887159F4F601822F30E239
S1131730882319F031938150FBCFC20ED11C20E0D5
S1131740992329F0D6019C93F60131966F0151112A
S11317500BC0F601822F90E3882319F091938150F6
S1131760FBCFC20ED11C20E00F2D060F9A81342F1F
S1131770307144FF03C0913309F40150101624F46E
S1131780093018F008E001C001E0AB0177FF02C0A6
S113179040E050E0FB01E41BF50BA1E0B0E0AC0F2E
S11317A0BD1FEA0FFB1F8EE2A82E4B01801A910881
S11317B00B2D10E01195019511094F3FBFEF5B0709
S11317C021F4D601AC9211966D01641775072CF0C3
S11317D08416950614F4818101C080E341505109B7
S11317E03196D60111967D014017510724F0D60198
S11317F08C936701E2CF6417750739F4963320F4AC
S1131800953319F4311101C081E3F6018083F701A6
S1131810822F90E2882319F091938150FBCFF70136
S1131820E20FF11D108280E090E02996ECE00C9428
S1131830900EA0E0B0E0EFE1FCE00C94740EEC013B
S11318406B016115710519F0FB01918380837E01A1
S1131850FFEFEF1AFF0A0881802F90E00E943F0EED
S1131860892B11F0E701F3CF0D3239F47E0182E0C8
S1131870E80EF11C098111E008C00B3229F47E0145
S113188092E0E90EF11C098110E0E701219743E0A1
S113189050E06CE570E0CE010E94480E892BC1F443
S11318A0239645E050E067E570E0CE010E94480EC3
S11318B0892B09F42596C114D10419F0F601D183BA
S11318C0C0831111F6C060E070E080E89FE7FAC0C1
S11318D043E050E064E570E0CE010E94480E892B9D
S11318E059F4C114D10409F4E9C0F2E0EF0EF11C7B
S11318F0F601F182E082E2C020E030E0A901C0E01C
S1131900D0E0F70180EDA82EA00E89E08A1530F111
S1131910912F9260B92E812F887012FF04C081111B
S113192024C0219622C081112197A5E0B0E00E9435
S1131930630EDC01CB01880F991FAA1FBB1F9C01FA
S1131940AD012A0D311D411D511D283989E9380782
S1131950480789E1580748F0166006C09EEFA912AF
S11319600AC013FD40C01860B12E8FEFE81AF80AC0
S113197000811B2DC6CF802F8F7D8534A1F58081FA
S11319808D3211F4106106C08B3221F0319661E082
S113199070E004C08181329662E070E080538A3046
S11319A018F0E61BF70B1FC060E070E060389CE0A5
S11319B079075CF4DB01AA0FBB1FAA0FBB1F6A0FD8
S11319C07B1F660F771F680F711D3196DF0111971A
S11319D08C9180538A3050F314FF03C07195619544
S11319E07109C60FD71F11FF08C0C114D10429F013
S11319F0CF010197F60191838083CA01B9010E9446
S1131A004A09212F2370233019F04B015C0106C0D1
S1131A104B015C01B7FAB094B7F8B09420E030E021
S1131A20A901C501B4010E949D08882309F43EC0A0
S1131A30D7FF06C0D195C195D10903E710E002C0D4
S1131A400BE810E06801F8E1CF1AD10890E2E92E22
S1131A50F12CCE15DF0574F0F801259135914591EF
S1131A605491C501B4010E94010A4B015C01CE19D5
S1131A70DF09EFCF04501109F594E7940C151D0507
S1131A8041F78A2D880F8B2D881F8F3F49F020E066
S1131A9030E0A901C501B4010E949D08811106C06E
S1131AA082E290E09093C3028093C202C501B40124
S1131AB009C060E070E080E89FEF04C060E070E07F
S1131AC080EC9FE7CDB7DEB7ECE00C94900E2830A5
S1131AD008F027E03327DA01990F311D87FD916063
S1131AE000966105710539F432602E5F3D9330E351
S1131AF02A95E1F708959F3F30F08038710561051C
S1131B0009F03C5F3C5F3D93913008F08068911D83
S1131B10DF93CF931F930F93FF92EF92192F987F28
S1131B209695E92F96959695E90FFF27E751FF4F74
S1131B3099273327EE24FF24A701E7010590089491
S1131B40079428F4360FE71EF81E491F511D660F2F
S1131B50771F881F991F0694A1F70590079428F40E
S1131B60E70EF81E491F561FC11D770F881F991FC6
S1131B70661F0694A1F70590079428F4F80E491FF0
S1131B80561FC71FD11D880F991F661F771F069404
S1131B90A1F70590079420F4490F561FC71FD81FBB
S1131BA0990F661F771F881F0694A9F784911095D3
S1131BB0177041F0D695C79557954795F794E794D4
S1131BC01A95C1F7EFE8F0E06894159015913591F6
S1131BD06591959105907FE27395E118F10A430BA5
S1131BE0560BC90BD009C0F7E10CF11E431F561F59
S1131BF0C91FD01D7EF4703311F48A95E6CFE894A2
S1131C00015030F0080F0AF40027021708F4202FBF
S1131C102395022F7A3328F079E37D932A95E9F707
S1131C2010C07D932A9589F6069497956795379504
S1131C3017951794E118F10A430B560BC90BD009F9
S1131C4098F023957E9173957A3308F070E37C9332
S1131C502013B8F77E9170617D9330F0839571E322
S1131C607D9370E32A95E1F71124EF90FF900F9193
S1131C701F91CF91DF91992787FD90950895911138
S1131C800C94600E803219F089508550C8F708957D
S1131C90FB01DC014150504088F08D9181341CF0EF
S1131CA08B350CF4805E659161341CF06B350CF45B
S1131CB0605E861B611171F3990B0895881BFCCF3C
S1131CC09927882708950E94A50EA59F900DB49F7B
S1131CD0900DA49F800D911D112408952F923F9281
S1131CE04F925F926F927F928F929F92AF92BF9228
S1131CF0CF92DF92EF92FF920F931F93CF93DF93D4
S1131D00CDB7DEB7CA1BDB0B0FB6F894DEBF0FBE30
S1131D10CDBF09942A88398848885F846E847D847D
S1131D208C849B84AA84B984C884DF80EE80FD807F
S1131D300C811B81AA81B981CE0FD11D0FB6F894F5
S1131D40DEBF0FBECDBFED010895A29FB001B39FCA
S1131D50C001A39F700D811D1124911DB29F700DB0
S10F1D60811D1124911D0895F894FFCFFB
S1131D6C41542B434D47533D00000D2020204C6F14
S1131D7C636174696F6E0D2020204C6174697475F5
S1131D8C6465203A20000D2020204C6F6E67697426
S1131D9C756465203A20000D202020416C74697410
S1131DAC756465203A20004D657373616765004660
S1131DBC6F7277617264696E67004D6573736167E6
S1131DCC652073656E740041542B434D47463D3179
S1131DDC0030373731323334353637004368656376
S1131DEC6B696E6720457965730020202D46696EFA
S1131DFC697368656400496E697469616C697A69B0
S1131E0C6E672E2E0057656C636F6D6500466C61B2
S1131E1C6D65204465746563746564202100466CAB
S1131E2C616D652069732044657465637465640031
S1131E3C44726976696E67206D6F646500416C63EA
S1131E4C6F686F6C204465746563746564005761D6
S1131E5C6974696E672E2E0057616974696E670028
S1131E6C436F6D706C6574650053706565642069AF
S1131E7C73005265647563696E672E2E0044726933
S1131E8C76657220697320536C656570696E6700A2
S1131E9C56656869636C65206973006E6F74206D98
S1091EAC6F76696E670009
S9030000FC
